S01B000050726F6469746F72202D20415453414D4431312E737265632D
S1130000200A0020F1000000ED000000ED000000D7
S113001000000000000000000000000000000000DC
S1130020000000000000000000000000ED000000DF
S11300300000000000000000ED000000ED000000E2
S1130040ED000000ED000000ED000000ED000000F8
S1130050ED000000ED000000ED00000011160000AE
S1130060ED000000ED000000ED000000ED000000D8
S1130070ED000000ED000000ED000000ED000000C8
S1130080ED000000ED000000ED00000010B5064C8E
S11300902378002B07D1054B002B02D0044800E045
S11300A000BF0123237010BDD80000200000000011
S11300B068390000084B10B5002B03D007490848E5
S11300C000E000BF07480368002B00D110BD064BB9
S11300D0002BFBD09847F9E700000000DC0000206B
S11300E0683900006839000000000000FEE70000E5
S11300F02148224970B5884204D00023204CCA18F4
S1130100A24232D300211F4B1F4A934231D3FF2115
S11301101E4B1F4A8B43936002220C250824302671
S11301201C4B1D485A62C378FC398B431343C3707C
S1130130C378AB432343C370184B987BB04306008A
S1130140202030439873987BA84304439C73987B86
S1130150884302439A738023114A51680B435360C6
S1130160104B9847104B9847FEE7C5580433156069
S1130170C5E702C3C9E7C046683900000000002093
S1130180D8000020D80000201C0600200000000039
S113019000ED00E0FC7000410050004100480041C7
S11301A0004000410129000041260000F0B5C020B4
S11301B080228025194B1A491E00C0055204ED0502
S11301C082609D62996204214261583632788A4382
S11301D032700122317891431143317019000F2696
S11301E03C310F78B743BC460627644627430F705B
S11301F080270424BF0487609D620A4D9D62476185
S113020059331878A04318701878904302431A7031
S11302100B781E40602333430B70F0BD0044004153
S1130220000100C0000200C02022064BD9690A4325
S1130230DA61402259690A435A61034A034B5A80DE
S11302407047C0460004004006410000000C004016
S113025010B5034B9847034B9847034B984710BD81
S113026029020000F1040000AD01000070B5134B39
S11302709847C0222020124B1249D205506099623F
S11302801149042499621900506045310D782C43BA
S11302900C70012490610878A0430870102151610A
S11302A091600A4A9A62C02212069A6244331A780A
S11302B0A2431A70064B984770BDC0468D080000D3
S11302C00044004120000240000002C01000004031
S11302D051020000EFF31083036072B6BFF35F8F27
S11302E07047BFF35F8F036883F310887047000083
S11302F0044B10B51C68044B9847044B01002000C4
S1130300984710BDF400002069080000850800002B
S11303100F22002370B50A4C02405E01A5196D78C6
S113032059B2854209D0365D002E01D1AA4204D0CB
S113033001330D2BF1D101214942080070BDC046A3
S1130340F80000200020704770B5084B04000D0031
S11303509847074B40011B189A780020032A03D1C1
S11303609B6929002000984770BDC0461103000016
S1130370F8000020F0B5394B87B000900F000192CF
S11303809847374D4401002F42D12E19F770295D4B
S1130390002934D12200B7780C327078F369032F26
S11303A028D10C27AA180131F757984773780028E9
S11303B00DD00522B270033AF2701800002F01DB51
S11303C0802018430121274B984707B0F0BD042231
S11303D0B27003AA03905060002F08DB802003430F
S11303E013720123100053721F4B9847EDE70F203F
S11303F00340F5E7AA1898470223B370E5E7012301
S1130400B3702C19E178E369019A00989847DCE706
S11304102B19012F0CD10222DA70295D002904D195
S11304209A7000980F4B9847EBE705229A70E8E71B
S1130430022F08D10422DA702A5D002A01D19F70AC
S1130440C3E70122F2E7032F04D100229A70053298
S1130450DA70D6E706229A70FAE7C0461103000064
S1130460F800002081130000A9140000F0B51C4B13
S113047085B0040098471B4F430103930C33FB18CA
S1130480019319002000184B98478026C0B2174DDD
S11304907642082808D001212000A84701213443CE
S11304A0E0B2A84705B0F0BD002126432000A847CC
S11304B0F3B2002118000293A847039B0199FE1888
S11304C001272000B770736998470028EAD10523F3
S11304D03900B3702000A84739000298E1E7C0460C
S11304E011030000F80000205114000081130000E3
S11304F010B5124B984700281FDBD022104C520035
S11305002000104B00219847FF20631C0E4AA234A0
S1130510FF3419001870133120330A604A608A606E
S1130520A342F6D1094C0A490020A04709490120F9
S1130530A04702200849A047002010BDD50F0000A5
S1130540F80000208329000045030000E5150000A1
S11305506D040000490300007503000010B5014B51
S1130560984710BDC115000010B5014B984710BD48
S11305709910000010B5014B984710BDE110000020
S113058010B5014B984710BDF1100000F8B5104CA0
S113059006000D001700A047002813DAFF20A0472B
S11305A0041E12DB3A00290030000A4B9847002849
S11305B007DB094B64011A19567003220020154009
S11305C0E554F8BD14204042FBE71520FBE7C04684
S11305D01103000001110000F8000020002110B5F3
S11305E082B2024B0800984710BDC0468D0500003A
S11305F070B5074B05009847041E07DB054B280020
S11306009847054B64011C19FF23637070BDC046F5
S113061011030000C9110000F800002070B50C4B54
S11306200500984700280FDB0A4C4001035D24189D
S11306305A4253410133A3702800074B98470028BE
S113064001DA0023A37070BD12204042FBE7C046CC
S113065011030000F800002045120000F0B5037AF1
S11306608BB0050001931800354B98476B7A061E32
S113067003936C6862DB334B06A8984773010093BD
S1130680009A314B9E18B37804AAD71D3B703B786F
S1130690DBB20293029A2D4B012A1DD10232B270B1
S11306A006A89847284B009AD35C002B25D0019BC1
S11306B0DA09039B591E8B41DBB2297A2D6807A8FE
S11306C007954460002A36D080220A434372204BA7
S11306D0027298470BB0F0BD06A898473B780220F9
S11306E0DBB2052BF6D0062B04D00120002BF1D170
S11306F0132000E010204042ECE7F27CB37C1202AD
S11307009B189BB2002B05D104221C00029BB270E3
S11307101A00D2E79C4200D91C000B49009A8C466F
S11307206244127B7F2A04D99C429B4101225B4292
S1130730C3E70023ECE70F220A40C7E71220DAE7F9
S113074011030000D5020000F8000020E3020000BD
S1130750A9140000F8B504000D1E1BD1124B9847D4
S1130760061E1EDB02212000104FB847002810D0BF
S113077029002000B84700280BDB0D4B76019E1999
S113078003210123F170B3702A00F3692000984714
S11307902800F8BD054B012900D00221200098470C
S11307A0F7E712204042F4E7110300008113000030
S11307B0F800002070B50F4B15000C009847002D71
S11307C000D10D4D002805DB012C09D0002C02D0EE
S11307D0022C0AD070BD094B400118184561F9E795
S11307E0064B400118188561F4E7044B40011818C2
S11307F0C561EFE71103000045030000F800002085
S11308000368002B03D101600B60704713001A6862
S1130810002AFBD119600A60F7E70000054B0200CB
S11308201968002901D104491960186882181A60EE
S11308307047C04698020020200A00200120404250
S1130840704780239B0100204B6070470120704754
S113085000207047010010B50148024B9847FEE79D
S113086014380000E52A00000300C8208000584323
S113087010B5034B0230032198470A23584310BD97
S1130880BD2700000139FDD87047000010B5064BA4
S11308905A685A60054B9847054B9847054B98474B
S11308A03F20054B984710BD00400041F908000067
S11308B01909000059090000BD080000C3070BD442
S11308C0830708D502220A4BFF329A60094A5A600C
S11308D05A78D209FCD170478022054B52009A60A5
S11308E0832252025A605A78D209FCD1E8E7C04602
S11308F0000C004001072100064B1A7AD2B21A728A
S11309005A7AD2B25A729A7AD2B29A72DA7AD2B243
S1130910DA727047000400400D4B0E48196A1A6AD7
S113092001400220920F920702430A431F211A62D8
S11309309A69104398611A7F0A401A770822D96885
S11309401142FCD08022196A0A431A627047C046D9
S1130950000800400000FF0F0222164B9A840E325A
S1130960D9681142FCD0144ADA62144A1268920E11
S11309703F2A0FD08021920289000A439A6293226F
S113098052009A849A8C520707D41022D9681142D3
S1130990FCD006E0FC22D201F0E71022D968114213
S11309A0FCD007494A78D209FCD102219A698A43CA
S11309B09A6170470008004080BB010424608000F5
S11309C0000C004000207047074B9A8C920605D417
S11309D0D021DA680A40D02AFBD170471022D968A6
S11309E01142FCD0F9E7C04600080040002803D0BB
S11309F0002901D00230C0B214230130434301481E
S1130A00C01870479C0200200F2370B50100807C41
S1130A10072503401A00CC7C083225405B01012DD8
S1130A2008D01449520152181021D171124A9B184E
S1130A30597270BD40252C4206D08026AC43CC743C
S1130A400D4C1C196671A5710825CC7C5201AC4370
S1130A50CC74002409493031C9188C728C7605494C
S1130A6052186F21D171044A9B185972044B9B6828
S1130A709847DEE700500041FF5000419C040020ED
S1130A809C02002020220F238A4010B50400807CA1
S1130A90054903405B015B18D2B25A72034BA2684A
S1130AA01B690121984710BDFF5000419C020020A2
S1130AB010B50300807CFF2809D04024DA7C224250
S1130AC005D0A243DA74024A14699A68A04710BD9B
S1130AD09C020020F7B5252401AD837C2C702419D9
S1130AE094466C70FF2B1AD04027C47C3C4216D02D
S1130AF00F2423401C0008346601002910D00A4F3B
S1130B00F61980273771084A6401A418074A695CFA
S1130B105B019B18E17159726146054B9847F7BD1B
S1130B20014AB6187771EEE700500041FF500041CA
S1130B30B10A0000F7B50F22847C01AF14400B3AD0
S1130B403A7004327A70220008320B002D4D610194
S1130B505601002B24D0AD5D6D066D0F2A4E303644
S1130B60B4461E017618B4446646B67AF6B2022D2F
S1130B701AD1013D2E4217D06446A47A5201AC43E7
S1130B806546AC721F4DFC5C5219D4711F4A89181A
S1130B904C72591E8B410422D9B21D4B9847F7BDA4
S1130BA0AE5D07253540D9E702252E4019D06646AB
S1130BB0B67AC47CAE436546AE72124EFD5C5201F9
S1130BC09219D571114A891807224D722240012ABF
S1130BD0E5D16206E3D5C17CC9098B42DFD000228E
S1130BE0DBE76000084AC018303200011218967220
S1130BF0084A6401A418054AFB5C8918E3714B7226
S1130C00CDE7C046005000419C040020FF50004145
S1130C10D50A00000051004170B50B4D8C232C0007
S1130C20FF269B001434ED1803212000074B98473E
S1130C300021A674E1741434AC42F5D10448602256
S1130C40044B3030984770BD9C020020B10A00006C
S1130C509C04002083290000F0B50F2585B0009185
S1130C60837C04001D4001936B010293002399428D
S1130C7006D04D4B6A0130339B185B699B049B0C77
S1130C80268A4A4A0396964202D0721E92B2039270
S1130C90E27C9446072261461140009A0291002AA0
S1130CA004D043496A0152180221D171A2686768CD
S1130CB09918A1606A01B94240D260467F1ABBB25A
S1130CC0394F80062ED5321C9E4200D91A1C236847
S1130CD096B259183200374BE0689847324BE268B5
S1130CE069015B181A646B01FF187B6CB604B20CC3
S1130CF09E0BB60316437E647B6C2F4A13407B64C1
S1130D00009B002B08D1029B4E22012B00D0043AF9
S1130D102A496B015B189A72254B6D01ED188023EB
S1130D206B713AE080201E1C8001834200D9061CAE
S1130D302368BA185918B6B21164D4E7102760466C
S1130D4038420ED0E37C6A01BB43E374164B1A4964
S1130D509B185A6C920B92035A645A6C0A405A6458
S1130D60CEE7029801281AD14B251448121855725F
S1130D70039A13409E420CD14025E37C0198AB4377
S1130D80E3740F4BDB689847002806D1E37C2B43C0
S1130D90E374002120000B4B984705B0F0BD0748D1
S1130DA04A251218E3E7C0469C040020FF03000014
S1130DB00051004171290000FF3F00F0FF50004145
S1130DC09C020020B10A00000F23F0B5827C87B09A
S1130DD01A40530104000D1E0192059368D0059A30
S1130DE0674B9B18586B0001820C03925F6BBF0426
S1130DF0BF0C238A0293029A624B9A4203D01300D7
S1130E00013B9BB202930723E27C029E13403E40C7
S1130E100493002D05D0019B5B495B015B18012104
S1130E20D97193060DD56268002A0AD0A068236898
S1130E30121A92B21818E168964200D23200534B4B
S1130E409847019A63685101002B34D11020E27C49
S1130E50024200D18BE0824320331A43E274484BB0
S1130E60059AE1689B181963218A1A0048485B6B4C
S1130E708904090903400B435363536B9B0B9B0386
S1130E805363002D0DD1019B04995A012523012997
S1130E9004D13B4B30339B189D762D233D4952188A
S1130EA09372019B384A5B019B1840221A711FE020
S1130EB003910F009DE7002D1CD0228AB24219D95C
S1130EC01022E37C9343E374A368DF19A760049BB7
S1130ED0012B48D12F4BC9182D234B72019B002B9A
S1130EE002D1274BE2681A63002120002A4B98475D
S1130EF007B0F0BDA668039AB44662441000A2602D
S1130F009342E4D920269B1AE27C9BB2278A324280
S1130F1012D0381C9F4200D9181C019A83B2500188
S1130F20174AE46810180463154A19485218516B9B
S1130F309B041B0901409EE7BB420DD98026B601E4
S1130F40B3420ED8029A93432468019A201854019C
S1130F500B4A14192063E7E7BB42F5D21643E67443
S1130F60F2E73300F0E70B4BC9182523B5E7002D52
S1130F70A3D1A268039B94466344A360A7E7C04639
S1130F809C040020FF03000000510041712900006F
S1130F90FF3F00F0FF500041B10A0000802302002F
S1130FA09B0007209A4214D8013BFF3B01389A4228
S1130FB00FD80138802A0CD80138402A09D80138C2
S1130FC0202A06D80138102A03D8063090428041DE
S1130FD04042704710B52A4CA378DB070DD4032395
S1130FE0A2781A42FCD10222237813423CD1012375
S1130FF023700233A2781A42FCD10123A2781A4248
S1131000FCD1204B204A1A605A609A60DA601A6157
S11310101E4B98471F201E4B1A68530B910C9201CC
S113102003400140520F834200D105231F2900D100
S11310300239072A00D1023A9B010B4312031343DE
S113104023850323E2781A43E2700C22E1780A43F1
S1131050E27004222270A0781840FCD10D4B30338A
S113106063620123238110BD2378934323700323F8
S1131070A2781A42FCD10223A2781A42FCD1B6E724
S1131080005000419C020020C5090000190C00001A
S1131090246080009C04002003220E4B99781142A6
S11310A015D199781142FCD102221978C9B21142A2
S11310B006D080210020084A1160084A1A8370472C
S11310C00A431A70032299781142FCD1F1E71120E6
S11310D04042F4E70050004100E100E08D020000CE
S11310E00121024A13898B43138170470050004148
S11310F080231843014B98727047C046005000414A
S1131100F7B500266B460F24009001929E570440C9
S11311100F002B4BF10F20009847032305001F40BD
S1131120022C44D8837CFF2B44D1002F0FD1F143F0
S1131130234BC90F20009847837CFF2B3AD1F33B04
S11311406343204A9B58002B36D1132030E0002EF5
S113115016DA0C2262431B4B9B185A68002A1BD1D7
S11311600C236343174CE4186368EB606B469B885D
S113117000202B826B461B780137EF74AB74FEBDE5
S11311800C2363430F4A9B58002B0BD00C22624361
S11311900C4B9B181B8900E05B89019A9342D4DBBA
S11311A0002EDDDB0C235C43064BE358DDE7122005
S11311B04042E4E71420FBE7002EE7DAC9E7C04623
S11311C0ED09000030380000F7B50F2543B2DF0FFA
S11311D005400193040039002800164B9847060087
S11311E0022D14D8837CFF2B11D00322124B39001B
S11311F098470722F37C1340012B09D100220834BD
S11312000E4B6401E2540023F374FF33B374F7BD4F
S113121063B2002B07DA7022094B6D01ED186B786D
S113122093436B70EFE7064B6401E41863789343D0
S11312306370E8E7ED090000D50A000000500041A2
S1131240FF500041F7B50F2544B20540E10F464B6E
S113125028009847454B6901CE1872780700D2B22E
S1131260022D00D97BE0837C0193FF2B00D176E033
S11312703F4DC37C30356D1807201900014001290A
S11312803BD17724144000D06CE0112373703B8A67
S113129000931800374B9847E0230007DB051840FC
S11312A0009B354A9B03134003436B60009B402122
S11312B09B049B0C8022184368610F20B1717271EA
S11312C0019AAC7202402A485201AC768518280073
S11312D0FE682E636D6B9E03284B2B4033434363A0
S11312E0436B9B0B9B034363204BD318B0225A716F
S11312F0A03A99719A722000FEBD002C17DA702072
S1131300140004402ED11B010340134373703F8A21
S1131310184B38009847E0230007DB05184080236A
S1131320BF04BF0C384368617371AC76E3E71040C7
S1131330041E17D15B075B0F134373703F8A0D4B79
S1131340380098470C4ABB031340E0220007D2053B
S11313501040184340236860B371AC72CBE712208D
S11313604042C9E71420FBE7ED090000FF500041AB
S11313709C0400209D0F000000C0FF0FFF3F00F001
S1131380F8B507000F25C4092F400E0038002100CE
S11313902B4B9847022F4FD8012E15D11022A24073
S11313A0837C28491D406B01D2B25B185A712023FB
S11313B0A340254A6D01DBB2AD18AB720823C27C91
S11313C01343C3740020F8BD837C002E29D12B4025
S11313D01E4A5B0199181C4A9B181022A240DD7911
S11313E02A42EFD0D2B25A712022A240D5B25D7205
S11313F01E7A324204D00122A240D2B21D725A7126
S11314000723C27C1340012B08D1FF31CB79302153
S11314100B40D7D128398A43C274D3E708239A43AF
S1131420FAE71D40074B6D01ED181023A340A8797E
S11314301840431E9841C6E712204042C3E7C04605
S1131440ED09000000510041FF50004100500041EF
S1131450F8B50F231840114B440130331B190F000A
S113146019685D68AD04AD0C022812D8002F10D0A5
S11314700B4BE4186378112B0ED11026237A00202D
S1131480334205D008223800064B984728002672BC
S1131490F8BD12204042FBE71320FBE79C04002028
S11314A0FF50004171290000F0B50F25037A87B081
S11314B01D405BB20193DB0F039319000700384B07
S11314C028009847374A038A04001E00934201D03B
S11314D05E1EB6B27A6816400296022D5DD83D684B
S11314E031498D420BD931485119814207D8032122
S11314F00D4004D1019900290EDB9A4206D2E3681B
S11315000125002B08D11320404215E0029B002B3B
S113151014D0E368002B40D0E37C02201B070BD4DB
S1131520234B05A89847E17C40230E00214A1E4026
S113153006D005A89047012007B0F0BD029DEBE757
S11315400B43E37405A890477F213B6823607B68C5
S1131550A6606360039BDA01E37C0B4013436901DB
S11315601D0020239D430D43E5747B7A002B03D09B
S1131570029E73425E41F6B21022E37C360193432D
S11315801E43019BE67400212000002B03DA0A4B62
S113159098470020D0E7094BFAE71220B4E7C04689
S11315A0ED090000FF030000FFFFFF1FFF0F0020F5
S11315B0D5020000E3020000590C0000C90D000030
S11315C0002900D10549012802D1054B5960704713
S11315D00028FCD1024B1960F9E7C046C509000098
S11315E09C020020002900D10749002802D1074BA2
S11315F099607047012802D1044BD960F9E70228A9
S1131600F7D1024B1961F4E7C50900009C020020E0
S1131610F7B5654B654D1A8C92B20192002A56D1EA
S11316209A8B1F8B042017403A00024003D0988302
S11316302B689847F7BD8021890039401FD05C4949
S1131640998399829239FF3919835A4B198F090763
S1131650090F032908D01900583108881100000720
S1131660000F032807D1012252019A180023118F79
S113167013874904490D03206B689847DAE78022F1
S11316803E00164003D09A836B680520F5E770226C
S11316903C00144009D09A839A82454A1A83464BE7
S11316A098476B6831000220E7E70826390031408B
S11316B00BD042494C709E839A823D4A1A83404B18
S11316C098476B6821000120D7E7FC0726D42C003B
S11316D0002701261434A27CFF2A3ED00F231A408F
S11316E0330093400199194237D0364953015B18AE
S11316F03249520152181B78927A13402DD0142289
S113170047217A43AA181032D27D1140012915D1FC
S1131710DA0609D520002C4B98471EE0244C9C8304
S11317209C821A836B68A8E74021194001D03100DC
S113173001E09B0611D52000244B0DE051B2002995
S11317401ADA5906F3D4190701D531001BE09907B9
S113175008D5310020001E4B9847013714341B2F45
S1131760B9D167E707210A40012AF6D100215A07B7
S113177009D4DB06F1D5CDE72021194001D00021A1
S1131780D9E7580702D52000124BE5E7334203D0CE
S113179031002000104BDFE707210A40012ADCD189
S11317A01A07E6D5D1E7C046005000419C0200204C
S11317B0010200009C040020C9090000FF50004100
S11317C0190C000007510041090A0000850A0000B5
S11317D0590C0000350B0000C90D00000A7870B5E3
S11317E0812A1BD14B78062B18D11B4C4B790E79CF
S11317F0257B1B0233439D4210D1CB78212B03D090
S1131800222B05D00D2024E021680A78002302E071
S113181000233B221149124CA04770BD5206920F7F
S1131820012A15D10C4B4C790E791D7B24023443CB
S1131830A5420DD14C78032C07D00B2CE2D18A7829
S1131840DA7300231A001900E5E70F331900DDE706
S11318500A204042E1E7C0467405002054380000E5
S1131860D11B0000F7B5150001294BD0002904D085
S11318700D24022906D11B2404E08768106800287F
S113188002D10A24644239E042798378032AF8D1E8
S11318903A7B934254D0FF2A54D13B730378DE3A07
S11318A0C0186968294B9847294B18600223019393
S11318B0286869680378C018264B98472860002870
S11318C0DFD04379027986781B02D218C17892B2AC
S11318D03000214B9847041E36D173B21F4A002BA7
S11318E00EDA7E7330009047019B013BDBB201931B
S11318F0002BDDD1164A0133D37313742000FEBDCF
S1131900BE73EFE78468002A03D013685B79032B66
S1131910B7D1237BFF2B01D0FF232373607BFF28E8
S113192003D00F4B9847FF236373A07BFF2803D09A
S11319300B4B9847FF23A3730024054B1C74DDE76E
S113194012249FE71C249DE714249BE7E91F000051
S113195074050020032000008D0500001D06000012
S1131960F105000010B50A4B984701280CD8094826
S1131970094BC06183611430084B98470120084922
S1131980084B9847002010BD11204042FBE7C04699
S1131990D51F000074050020651800007D1F00009D
S11319A000000020091F0000014B187C7047C0464E
S11319B074050020F7B5224D04002B7C0E00002B8B
S11319C03AD008220021281D1E4FB8470323734331
S11319D0581C221801920022611C0198814214D1E2
S11319E0B61AF6B2062E17D820000222E31898423F
S11319F016D08178012906D141780478002916D0BF
S1131A002979214329710330F1E70878002801D0AE
S1131A100132D2B20331E0E7A81D0622FF21B84704
S1131A20291D687B00230822074CA047FEBD511CDA
S1131A30AA181471CAB2E6E711204042F6E7C0467C
S1131A407405002083290000D11B0000064B10B54B
S1131A501C69002C00D110BD200063680022012104
S1131A6098472468F5E7C0469405002070B5050042
S1131A700E00064BDC68002C00D170BD6368002B9F
S1131A8002D03100280098472468F4E79405002028
S1131A90F8B505000E0017000B4B9C68002C01D113
S1131AA02000F8BD6368002B01D12468F6E73A00F2
S1131AB0310028009847002804D00A30F5D00120CE
S1131AC04042EEE70120ECE794050020054B10B5F9
S1131AD05C68002C00D110BD6368002B00D09847CF
S1131AE02468F6E79405002010B51400002903D0FB
S1131AF0012923D0002010BD1378002BFAD153788C
S1131B00052B0FD0092BF5D1D1789378090219430D
S1131B100D4BD9764A1E91410331997601200B4B26
S1131B209847E7E70A4B90789847E178A378090249
S1131B3019434B1E9941044B0231EEE70A00054B51
S1131B40210000209847D5E7940500206D1A000075
S1131B5081050000911A000070B5002402260C4B88
S1131B6098470C4D20000C4BAE76EC766C7798477A
S1131B700A4B287F98470A4D21002000094AA847AC
S1131B803100094A2000A8472000084B984770BD3F
S1131B904D1A000094050020F1050000DD05000049
S1131BA0B5070000ED1B0000E91A00001D06000047
S1131BB010B5002802D0012803D010BD024B98476D
S1131BC0FBE7024B9847F8E76D1A0000591B000029
S1131BD01FB501AC207263722000034B0191029285
S1131BE0984704B010BDC0465D060000F7B5B34B7E
S1131BF0002204000D0098470022431C00D15AE142
S1131C000132904200D156E129781F230A009A43F9
S1131C1004D0802A00D1B1E000224CE16878013878
S1131C200A28F9D800F0B6FD42F854F80BF8F8F891
S1131C3006F85E00AA78002A05D1A14B9847002235
S1131C4001231100CBE09F4D2B6803CB9E4B98479B
S1131C50021E00D12FE1C37881781B02C91889B212
S1131C6041189A4B042201919847FF230090009A4F
S1131C70002AE4D096789E4216D02F69002F0AD10C
S1131C800098042203780199C018904B009098475B
S1131C9033000090EBE76A46002138007B689847E0
S1131CA00028EDD03F68E9E71E00E9E70229B3D137
S1131CB0EE79AB7936021E43AED131002879844BDC
S1131CC098470123320031002000824CA047F1E004
S1131CD00229A1D1EB79AE791B021E439CD128794C
S1131CE00139ECE7EC78AB7824021C432B796D794D
S1131CF0744E2D021D433368F27E03CB724B98471A
S1131D00002889D004220090C37881781B02C91866
S1131D1089B241186D4F0191B847002800D17BE783
S1131D208378AB4210D1C378A3420DD137690090B8
S1131D30002F00D170E701216A4638007B6898477C
S1131D40011E08D03F68F3E7009804220378019944
S1131D50C0180090E0E77B686A463800984700287E
S1131D6000D059E7002C04D00122AA40737F13430A
S1131D70737700231A0019001800A6E768780A2868
S1131D8000D949E700F010FD680048FF48FF48FF0C
S1131D9048FF48FF0B0048FF600048FF8500E978D2
S1131DA0AA78090211430B0A022B1FD0032B3BD044
S1131DB0012B00D030E7EB79AA791B0213431D1CD9
S1131DC0122B00D912253F4B01221B68ADB203CB65
S1131DD03E4B98470023011E00D11DE72A00200036
S1131DE03C4CA04742424241D2B264E0AB79ED7927
S1131DF001312D021D43334BCAB21E7F1B6803CB36
S1131E00314B9847011E00D106E7C37882781B0244
S1131E10D21892B200239542E0D9013E35406B427C
S1131E206B411500DBB2D9E7AB79ED79CAB22D026B
S1131E301D43244B1E7F1B6803CB274B9847011E71
S1131E4000D1E9E60278E5E71E49CB7E4A691370C2
S1131E5049690023012237E71F23194001290CD9BE
S1131E60022900D0D8E62879194B984700229042DD
S1131E7021DB01231840009001E000230093114D61
S1131E8002226946154B6869984700230222696952
S1131E901AE70C4E6B792A79707F1B0213431841A1
S1131EA0012420402ED17369220018707169030047
S1131EB0084DA84701221000FEBDC046911A00003B
S1131EC04D1A00009405002021200000E91F0000A5
S1131ED055070000D11B00005D200000712900009F
S1131EE02A000221200063689847002803DA246846
S1131EF0002CF5D190E673690122187000237169F2
S1131F001800E2E63469F3E710B5012809D0002887
S1131F1002D0022808D010BD05480430054B98476C
S1131F20F9E703480830F9E701480C30F6E7C04602
S1131F30940500200108000070B50A4B050098477D
S1131F4000280EDB084C2022084B00212000984773
S1131F50656107490020074CA04701200649A047B6
S1131F60002070BDF10400009405002083290000C6
S1131F70CD1A00005D050000B11B000010B5010082
S1131F800248034B1030984710BDC046940500200A
S1131F900108000010B50A4B9C7E002C0BD10028D0
S1131FA00CD002681860D2791A7701229A76054B10
S1131FB09847200010BD04204042FBE70920FBE7BE
S1131FC0940500206905000010B5014B984710BD29
S1131FD075050000034B987E1023184200D01800AA
S1131FE07047C0469405002010B5884201D30020F4
S1131FF010BD0378012BFAD944789442F8D0C01864
S1132000F3E7884201D3002070470378012BFAD903
S11320104278042AF7D0052AF6D0C018F1E7000068
S113202070B50D4B150002220C00984700280FD103
S113203070BD0378012B0DD94378022B0AD1437963
S1132040AB42F5D0C278837812029B189BB2C018B9
S1132050A042EED30020EBE7E91F000070B50D00AD
S113206016000024A84201D3002070BD03222900D9
S1132070054B98470028F8D00378012BF4D9B442D3
S1132080F3D0C0180134EDE7E91F000070B5154B1B
S1132090154C1A781E2A07D801321A706389002B4E
S11320A001D0013B638170BD002221781A709142F6
S11320B00BD1C0231032DB059A61012361722370B6
S11320C0601C0321094B9847E8E758780028F7D0AB
S11320D0C0211025C9054D61E07101205A7060725C
S11320E02270EDE7B405002008000020B5190000B7
S11320F013B5084B01A89847C023074ADB051C68A1
S1132100126A1B6901A853401C405440034B984772
S1132110200016BDD502000000440041E302000087
S113212010B5132804D85A4010000840584010BD78
S1132130272803D85A4010004840F8E73B2806D81F
S1132140100018431340014018000843EFE74F28DC
S1132150F0D90120004B9847D5280000132805D951
S1132160272805D93B2805D9034870470348FCE7CD
S11321700348FAE70348F8E7D6C162CA9979825A54
S1132180A1EBD96EDCBC1B8FF7B507000C000092E5
S1132190061E30D03F2340250B40ED1A082D01D8F0
S11321A08025ED1A2B1901931800144B984722002F
S11321B03900134B0600984780232A00601C3355CE
S11321C0083A104B3018002198470022E300083CDD
S11321D06519EDB2725575196A70AA70EA701A0E13
S11321E02A711A0C6A71EB711A0A009BAA71002BEE
S11321F001D0019A1A603000FEBDC0464929000092
S113220071290000832900000023F0B5DFB00D938D
S11322100DAA544B9847544B544F0393544B089076
S11322200293544B04900193534B0093089A049BDC
S11322309B1A0D9A9A421ED80898504B9847504BB7
S113224014209847009B01000360019B07614360D1
S1132250029B14318360039BC36003001A68140E4D
S11322601C70140C5C70140A9C70DA70043399426C
S1132270F4D15FB0F0BD0021049A0EA8137854780D
S11322801B0624042343D478234394780432240281
S113229023430B5004314029F0D10026039B0A97B5
S11322A00793029B0EAC0593019B0993009B069335
S11322B00F2333409A000B920F2E18DD1A000F21C2
S11322C00D320A4019000F200831014092008900A4
S11322D0095912594A4099000233034061589B003E
S11322E01B594A4053401F22D3410B9AA3500999CA
S11322F0079B059AF0B2234DA8471B23069ADA419F
S113230013000B9AA5585D192D181F4BF0B298476E
S11323100A9B4519ED180223099A0136DA41130084
S1132320069A0992079A0A92502E15D10699009A94
S11323308C4652190092019A62440192029AD3186F
S1132340059A02939446039B63440393079BFF18E7
S1132350049B4033049369E7059A06950792059315
S1132360A6E7C0468921000076543210F0E1D2C3BA
S1132370FEDCBA9889ABCDEF012345675D290000E7
S113238049290000212100005D210000F8B5070063
S1132390084B10000C001500984706003900220075
S11323A0054B98472A1B30190021044B98473000ED
S11323B0F8BDC046492900007129000083290000A6
S11323C0F0B587B00C9D05900E00100019002F4C3D
S11323D0AB424BD92E4B98472A000D990700A047D2
S11323E02C4B0290380098472B4C2800A0470390B0
S11323F02800A047002436225C210490AC4239D145
S1132400A519254B28009847244F220003990190D1
S1132410B847019B320018190599B847290001985B
S11324201B4B98470D9B0600E318059318001A4BA5
S11324309847050022000499B8470D9A28193100DD
S1132440B8470599124B280098470700114C039888
S1132450A0470498A0470198A0473000A04728004F
S1132460A0470298A047380007B0F0BD2A00A04753
S11324700290B9E71000029B039F1B5D584038553A
S113248004984B4003550134B8E7C0468D2300003F
S1132490092200005D29000049290000712900007B
S11324A00F23411801390A78FE211A40835C8218EF
S11324B05078C9051B060B4000041843D378184311
S11324C093781B02184370477FB5099D13000600DB
S11324D02A0E02A8089C02702A0C42702A0A8270F2
S11324E0220E0271220C4271220A8271C4714022AE
S11324F01424C570019400920B4D0A000821A847CA
S113250021000A4B05009847094B0400280098470E
S1132510084B062E05D1084920009847080004B04E
S113252070BD0649F8E7C046C1230000A12400009D
S11325305D290000C928000040420F0000E1F505B4
S1132540F8B51F4D1F4AAB68A9685B035B0F9B007E
S11325509E5889B24E431C4C31002700731EFF3B2A
S1132560083763604039194B042238009847E37AEE
S1132570FF2B18D0627A237A12021A43A37A1B041F
S11325801A43E37A1B0613431022E360104B596984
S11325900A435A610422D9690A43DA6180236A68CA
S11325A013436B60F8BD3100084B10390422380026
S11325B09847084B2B802B7DDB07FCD5DAE7C04618
S11325C00040004190380000B4050020712900004B
S11325D00004004045A5FFFF802270B5134BC0B036
S11325E05C68060052002100114B6846984720227F
S11325F06D46104B30963C96198BFF320A431A8372
S11326006208DA610C4A1A801A7DD207FCD5621C72
S1132610FF322D1B295902C49442FBD1074A1A8068
S11326201A7DD207FCD540B070BDC046B405002069
S1132630712900000040004102A5FFFF04A5FFFF2F
S1132640F0B5414B85B09847404B9847C0222021B4
S11326500423D2053E485160047823433D4C037063
S1132660200091613C4B103098473C4B98473C4FBD
S11326703C4B38000C3098473B4B98473B4B9847B2
S113268003900028FAD03900394B143100209847C0
S1132690C0231022DB059A61364B98472023184249
S11326A0FAD16678002EF7D13900E3681C31013382
S11326B0E3601422009301962F4B082098470500ED
S11326C0330020650736002D26D1002B00D0256568
S11326D00025272623005433EB5C002B2CD1667095
S11326E06378002B2BD10135082DF3D12833637087
S11326F0073D204B984763785A1E93413A786A40C5
S11327001343F6D12B0040098343F2D11B4BE068FD
S113271098471B4B7B81BFE7721CD6D02800194B0E
S11327200A219847184B2800F154184B0A2198475E
S1132730013E0500039BC6E71D336370D0E73220DA
S1132740134B9847CCE7C0466D02000041250000BA
S113275045440041B4050020391F000065190000FC
S113276008000020951F0000C91F0000A9190000DF
S1132770091F0000F1200000C9240000D925000031
S113278060EAFFFFC928000008060020BD270000FA
S1132790F102000002B47146490849000956490093
S11327A08E4402BC7047C04603B4714649084000D9
S11327B04900095E49008E4403BC70470022430867
S11327C08B4274D303098B425FD3030A8B4244D3F5
S11327D0030B8B4228D3030C8B420DD3FF22090237
S11327E012BA030C8B4202D31212090265D0030BF6
S11327F08B4219D300E0090AC30B8B4201D3CB03EC
S1132800C01A5241830B8B4201D38B03C01A52412D
S1132810430B8B4201D34B03C01A5241030B8B422F
S113282001D30B03C01A5241C30A8B4201D3CB021A
S1132830C01A5241830A8B4201D38B02C01A5241FF
S1132840430A8B4201D34B02C01A5241030A8B4202
S113285001D30B02C01A5241CDD2C3098B4201D31A
S1132860CB01C01A524183098B4201D38B01C01A98
S1132870524143098B4201D34B01C01A524103090F
S11328808B4201D30B01C01A5241C3088B4201D3BE
S1132890CB00C01A524183088B4201D38B00C01A6B
S11328A0524143088B4201D34B00C01A5241411A92
S11328B000D20146524110467047FFE701B500209F
S11328C000F006F802BDC0460029F7D076E770474D
S11328D07047C046084B10B50400002B02D00021FD
S11328E000E000BF054B1868836A002B00D09847AE
S11328F02000FDF7AFFFC04600000000B038000024
S113290070B500260C4D0D4C641BA410A64209D1D1
S1132910002601F019F80A4D0A4C641BA410A642C3
S113292005D170BDB300EB5898470136EEE7B3000C
S1132930EB5898470136F2E7543900005439000047
S1132940543900005839000010B5034B01001868D1
S113295000F06AF810BDC0467400002010B5034BA7
S11329600100186800F016F810BDC046740000207D
S1132970002310B59A4200D110BDCC5CC45401337D
S1132980F8E703008218934200D1704719700133AD
S1132990F9E7000070B50500002910D00C1F23686A
S11329A0002B00DAE418280000F09FF91D4A136890
S11329B0002B05D163601460280000F097F970BD06
S11329C0A34209D9216860188342F3D118685B686F
S11329D041182160EEE713005A68002A01D0A24290
S11329E0F9D919685818A0420BD120680918581849
S11329F019608242E0D110685268411819605A6027
S1132A00DAE7A04202D90C232B60D5E721686018CD
S1132A10824203D1106852684118216062605C6090
S1132A20CAE7C04610060020032370B5CD1C9D43A1
S1132A30083506000C2D1ED20C25A9421DD83000E5
S1132A4000F053F9254A14682100002919D1244CB7
S1132A502368002B03D1300000F05EF820602900C9
S1132A60300000F059F8431C2CD10C2330003360A3
S1132A7000F03CF903E0002DDFDA0C233360002082
S1132A8070BD0B685B1B1AD40B2B03D90B60CC18DD
S1132A90256003E08C420ED163681360300000F0BF
S1132AA025F9200007220B30231D9043C31AE7D0D9
S1132AB05A42E250E4E74B6863600C00EEE70C0016
S1132AC04968C2E70323C41C9C43A042E0D0211AF6
S1132AD0300000F021F8431CDAD1C6E710060020CC
S1132AE0140600200FB40B4B13B51C68002C05D042
S1132AF0A369002B02D1200000F062F805AB049A10
S1132B00A1682000019300F019F916BC08BC04B0B8
S1132B101847C04674000020002370B5064C050019
S1132B2008002360FDF77AFE431C03D12368002BC1
S1132B3000D02B6070BDC0461806002010B50249B5
S1132B4000F0B2F810BDC04615360000002310B5E1
S1132B50040003604360836081814366C281036132
S1132B6043618361190008225C30FFF70AFF054BBB
S1132B7024626362044BA362044BE362044B236349
S1132B8010BDC04685320000AD320000E5320000C1
S1132B901133000070B568254A1E55430E00290004
S1132BA07431FFF741FF041E08D000212A000160A0
S1132BB046600C30A0606832FFF7E3FE200070BD71
S1132BC0836913B50400002B28D18364C3640365AF
S1132BD0134B144A1B6882620193984201D101236A
S1132BE08361200000F020F86060200000F01CF8F1
S1132BF0A060200000F018F80022E0600421606862
S1132C00FFF7A4FF01220921A068FFF79FFF02221A
S1132C101221E068FFF79AFF0123A36113BDC046A8
S1132C20B03800003D2B0000F8B51E4B07001E68AD
S1132C30B369002B02D13000FFF7C2FF4836B468F5
S1132C407368013B04D53368002B07D03668F6E778
S1132C500C22A55E002D0DD06834F2E70421380063
S1132C60FFF798FF30600028F0D10C2304003B608C
S1132C702000F8BD012320005B42E3810233A381DD
S1132C8065662560A560656025616561A5610822AA
S1132C9029005C30FFF775FE6563A563A564E564F0
S1132CA0E6E7C046B0380000F7B504000700002688
S1132CB001914834002C01D13000FEBD6368A56841
S1132CC00093009B013B009301D52468F2E7AB8994
S1132CD0012B08D90E22AB5E013304D02900380041
S1132CE0019B984706436835EBE770477047936844
S1132CF010B5013B9360002B05DA9469A34208DB0D
S1132D00CBB20A2B05D01368581C10601970C8B2D6
S1132D1010BD00F003FBFBE7F8B506000F0014003C
S1132D20D518AC4201D1002007E021783A003000E8
S1132D30FFF7DDFF0134431CF3D1F8BDF0B59FB0BC
S1132D4006000F0014000593002804D08369002BAB
S1132D5001D1FFF735FF7F4B9F425CD17768BB8978
S1132D601B0762D53B69002B5FD0002306AD6B6166
S1132D7020336B761033AB760294029C2378002BBD
S1132D805DD1029BE31A04930DD0049B029A39008F
S1132D903000FFF7C1FF431C00D1CCE06A69049BFB
S1132DA0944663446B612378002B00D1C3E0012275
S1132DB0002352426A6002A95432521801342B6033
S1132DC0EB60AB601370AB6521780522624800F0BC
S1132DD0CDFC631C9C46002835D12968CB0604D55C
S1132DE0532302AA20309B1818700B0704D55323D1
S1132DF02B2002AA9B18187023782A2B2CD0002091
S1132E000A21099B2278303A092A00D86BE000286D
S1132E102AD0099328E0514B9F4201D1B7689EE71D
S1132E204F4B9F429BD1F76899E73900300000F07F
S1132E30DFFA002899D0012040421FB0F0BD252BB5
S1132E409FD001349AE7444B2968C01A0123834078
S1132E500B432B606446B7E7059B181D1B68059060
S1132E60002B3ADB0993644623782E2B0BD163782D
S1132E70621C2A2B3FD1059B02341A1D1B68059244
S1132E80002B35DB079321780322364800F06EFCD3
S1132E90002807D0334B2A68C01A402383401343C9
S1132EA02B6001342178631C06222F480293297673
S1132EB000F05CFC002844D02C4B002B2FD1296857
S1132EC0059B0722C90528D59B189343083305930E
S1132ED06B69039A9B186B614FE75B42EB600223BB
S1132EE00B432B60BFE74B4301349B18012089E758
S1132EF001235B42C6E7002314000A201A006B601A
S1132F0021783039092903D9002BBCD00792BAE7BC
S1132F104243013452180123F2E70733D5E705ABE6
S1132F2000933A00124B2900300000E000BF0390E8
S1132F30039B0133CCD1BB895B0600D57BE70B989F
S1132F407BE705AB00933A00094B2900300000F001
S1132F507FF8ECE7D438000014390000F43800009E
S1132F60B43800001A3900001E39000000000000C7
S1132F70192D0000F7B5150001938A680B690090BC
S1132F800C00934200DA130022002B6043321278C3
S1132F90002A01D001332B6023689B0602D52B68DD
S1132FA002332B60062723681F4027D023004333B6
S1132FB01B785A1E93412268920630D4220001994C
S1132FC043320098089EB047431C25D0062320684E
S1132FD02A68E16803400025042B03D18D1AEB43D2
S1132FE0DB171D40A3682269934201DD9B1AED188B
S1132FF00027BD4220D1002010E00137E3682A6891
S11330009B1A9F42D2DA22000123193201990098B7
S1133010089EB047431CF0D101204042FEBD302041
S1133020E1184331087021005A1C45310978A2186F
S1133030433202331170C1E7220001231A3201998D
S11330400098089EB047431CE6D00137D1E7000042
S1133050F0B58BB006920A004332079305900492B0
S11330600A7E0C00109B6E2A00D18FE017D8632AC9
S11330702CD008D8002A00D199E0582A54D0260030
S11330804236327029E0642A01D0692AF7D12168D6
S11330901A68080623D5111D1960156825E0732ADE
S11330A000D188E008D86F2A29D0702AE7D12022DD
S11330B009680A43226003E0752A20D0782ADED109
S11330C022007821453211706C4A30E00E001A68F3
S11330D04236111D196013683370012379E04906E3
S11330E0D9D5111D19600023D55E002D03DA2D23D7
S11330F0049A6D421370624B0A2703932FE02068F1
S11331001968050603D5081D18600D6805E040061A
S1133110F9D50D68081D1860ADB2594B0827039303
S11331206F2A18D00A2716E045310A70544A0392D0
S11331301A682168101D18601568080622D5CB0787
S113314002D52023194321601027002D03D1202309
S113315022689A4322602300002243331A70636872
S1133160A360002B5CDB0422216891432160002DC5
S113317058D1049E002B64D02600039B42361B7852
S113318033705EE04806DAD5ADB2D8E709681A684C
S1133190080605D5111D1960136862691A6006E0F6
S11331A04906F7D5111D19601368A28A1A800023F5
S11331B0049E236154E01A68111D196016680021E9
S11331C06268300000F0D2FA002801D0801B6060F1
S11331D0636823610023049A137041E02369320079
S11331E006990598079DA847431C43D023680025EA
S11331F09B070FD4099BE06898423DDA18003BE036
S113320022000123193206990598079EB047431CF2
S113321030D00135E368099A9B1A9D42F0DBE9E757
S1133220002DA9D0049E28003900FFF74DFB039B15
S1133230013E5B5C280033703900FFF7BFFA051EBE
S1133240F1D1082F09D12368DB0706D56368226909
S1133250934202DC3023013E3370049B9B1B2361A9
S1133260079B09AA00932100069B0598FFF782FE9D
S1133270431CB3D1012040420BB0F0BD36390000ED
S11332802539000070B50C000E25495F00F07AFA6C
S1133290002803DB636D1B18636570BDA389024AB4
S11332A01340A381F9E7C046FFEFFFFFF8B51F0005
S11332B08B8905000C001600DB0505D50E23C95EBD
S11332C00022022300F0D2F9A389054A2800134002
S11332D0A38132000E23E15E3B0000F075F8F8BDD7
S11332E0FFEFFFFF70B50C000E25495F00F0BEF93B
S11332F0A389421C03D1054A1340A38170BD8022D7
S113330052011343A3816065F8E7C046FFEFFFFF56
S113331010B50E23C95E00F0E1F810BDF8B5050044
S11333200E001400002804D08369002B01D1FFF79C
S113333047FC224B9C422DD16C68A369A360A389EE
S11333401B0731D52369002B2ED023682269F7B2DD
S1133350981A6369F6B2984205DB2100280000F050
S113336059F9002826D1A3680130013BA3602368E2
S11333705A1C22601F706369984204D0A389DB073A
S11333801AD50A2E18D12100280000F043F900288C
S113339012D00FE00A4B9C4201D1AC68CDE7094B37
S11333A09C42CAD1EC68C8E72100280000F020F84C
S11333B00028CAD0012676423000F8BDD438000077
S11333C0F4380000B438000070B50500080011009E
S11333D00022064C22601A0000F014FA431C03D1A8
S11333E02368002B00D02B6070BDC0461806002057
S11333F0364B70B51D6806000C00002D05D0AB6976
S1133400002B02D12800FFF7DBFB314B9C420FD18C
S11334106C680C23E25E93B219072DD4D90611D43B
S113342009230120336037331343A381404270BD25
S1133430284B9C4201D1AC68EBE7274B9C42E8D176
S1133440EC68E6E75B0713D5616B002908D023001D
S11334504433994202D03000FFF79CFA002363639F
S11334602422A3899343A3810023636023692360F7
S11334700823A2891343A3812369002B0BD1A02124
S11334808022A389890092000B40934203D021003B
S1133490300000F027F90123A289134011D0002342
S11334A0A36063695B42A361002023698342BED1A8
S11334B00C23E25E1306BAD540231343A3810138DB
S11334C0B5E7920700D46369A360EDE774000020B8
S11334D0D4380000F4380000B4380000002370B57C
S11334E0064C050008002360FDF7A8F9431C03D12E
S11334F02368002B00D02B6070BDC0461806002046
S1133500F7B58A8905000C00130760D44B68002BBB
S113351004DC0B6C002B01DC0020FEBDE76A002FED
S1133520FAD000232E682B6080235B011A4034D02C
S1133530606DA3895B0706D56368C01A636B002BB3
S113354001D0236CC01A0200216A00232800E76A14
S1133550B847A189431C06D12B681D2B31D82C4AAE
S1133560DA40D3072DD50023636023692360CB049D
S113357005D5431C02D12B68002B00D16065616B1B
S11335802E600029C8D023004433994202D0280079
S1133590FFF700FA00206063BFE70123216A2800D7
S11335A0B847431CC5D12B68002BC2D01D2B01D0BA
S11335B0162B01D12E60AFE74023A2891343A381C8
S11335C0ABE740230B430120A3814042A5E70F69E9
S11335D0002FA1D00B680F60DB1B0193002392071F
S11335E000D14B69A360019B002B00DC94E7019B95
S11335F03A00216A2800A66AB047002803DC402369
S1133600A2891343DFE7019B3F181B1A0193EAE7E2
S1133610010040200B6970B505000C00002B01D19E
S1133620002070BD002804D08369002B01D1FFF76E
S1133630C7FA0B4B9C4209D16C680C22A35E002B89
S1133640EED021002800FFF75BFFEAE7054B9C4220
S113365001D1AC68F1E7044B9C42EED1EC68ECE795
S1133660D4380000F4380000B438000070B5050008
S1133670080011000022064C22601A00FDF7E8F849
S1133680431C03D12368002B00D02B6070BDC046BF
S11336901806002070B50E001D000E23C95E90B000
S11336A01400002907DA00232B60B3891B0611D408
S11336B08023DB000FE001AA00F078F80028F2DB99
S11336C0F022029B12021340054A9B185A425341AE
S11336D02B60EDE740230020236010B070BDC0468E
S11336E000E0FFFFF7B502268B8905000C0033428A
S11336F006D0230047332360236101236361F7BDB0
S113370001AB6A46FFF7C6FF009907002800FFF7E0
S11337108BF9002808D10C22A35E9A05EFD403226A
S113372093431E43A681E4E70F4BAB628023A28937
S113373020601343A381009B20616361019B002BE4
S11337400DD00E23E15E280000F042F8002806D0D8
S11337500322A38993431A0001231343A381A0895D
S11337603843A081CBE7C0463D2B0000C9B2821884
S1133770904201D10020704703788B42FBD0013086
S1133780F6E7000070B50500080011000022064CA1
S113379022601A0000F02EF8431C03D12368002B8A
S11337A000D02B6070BDC04618060020002370B501
S11337B0064C0500080011002360FDF742F8431C85
S11337C003D12368002B00D02B6070BD18060020A5
S11337D0002370B5064C050008002360FDF736F899
S11337E0431C03D12368002B00D02B6070BDC0465E
S11337F01806002058220120014B40421A607047ED
S11338001806002058220120014B40421A607047DC
S11338101806002045786974696E672077697468B2
S1133820207374617475732025642E0A00000000EF
S11338303405002000000000400000002C0500209A
S1133840000000000800000000000000000000006C
S11338500000000005010906A101050719E029E798
S1133860150025017501950881028101190029655A
S113387015002565750895068100050819012905B7
S11338801500250175019505910295039101C0006C
S113389008000000100000002000000040000000AC
S11338A0800000000001000000020000000400008D
S11338B0780000200000000000000000000000006C
S11338C000000000000000000000000000000000F4
S11338D000000000000000000000000000000000E4
S11338E000000000000000000000000000000000D4
S11338F000000000000000000000000000000000C4
S113390000000000000000000000000000000000B3
S113391000000000232D302B2000686C4C006566ED
S1133920674546470030313233343536373839410C
S11339304243444546003031323334353637383922
S11339406162636465660000F8B5C046F8BC08BCF3
S11339509E467047B5000000F8B5C046F8BC08BCE8
S10B39609E4670478D00000033
S113396800000000DD170000010101000401004C03
S11339780000B80B3800002073000020000000008D
S11339888D2000003132333435363738393031320E
S1133998333435363738393012010002000000401C
S11339A8EB030124000100000001090229000101C0
S11339B800803209040000020301010009211001FA
S11339C82101223B000705810308000A07050103BA
S11339D808000A007800002000000000D438000025
S11339E8F4380000B43800000000000000000000B3
S11339F800000000000000000000000000000000BB
S1133A0800000000000000000000000000000000AA
S1133A18000000000000000000000000000000009A
S1133A28000000000000000000000000000000008A
S10B3A38000000000000000082
S9030000FC
